:020000040800F2
:1000000000280020A915000831150008391500083E
:1000100041150008491500085115000800000000AE
:10002000000000000000000000000000591500085A
:100030006515000800000000711500087D15000816
:10004000F1150008F1150008F1150008F115000878
:10005000F1150008F1150008F1150008F115000868
:10006000F1150008F1150008F1150008F115000858
:10007000F1150008F1150008F1150008F115000848
:10008000F1150008F1150008F1150008F115000838
:10009000F1150008F1150008F1150008F115000828
:1000A000F1150008F1150008F1150008F115000818
:1000B00089150008F115000800000000F11500087E
:1000C000F11500080000000000000000F115000814
:1000D00000000000F1150008F11500080000000004
:1000E000F1150008F1150008F115000800000000E6
:1000F0000000000000000000000000000000000000
:0C01000000000000000000005FF808F1A3
:10010C0010B5054C237833B9044B13B10448AFF345
:10011C0000800123237010BD580000200000000057
:10012C00282C000808B5034B1BB103490348AFF357
:10013C00008008BD000000005C000020282C000896
:10014C0080B483B000AF7860094A7B6852F82330E2
:10015C00012B06D1064A7B68002142F823100123AB
:10016C0000E0002318460C37BD4680BC704700BF2A
:10017C007400002080B483B000AF7860094A7B68BB
:10018C0052F82330012B06D1064A7B68002142F835
:10019C002310012300E0002318460C37BD4680BC19
:1001AC00704700BF8000002080B582B000AF0023F4
:1001BC007B608FE04C4A7B6852F823204B497B686C
:1001CC0041F823204A4A7B6852F8232046497B6831
:1001DC0041F823207B68002B0AD10421454801F00B
:1001EC00EFFC03461946424A7B6842F823101AE09A
:1001FC007B68012B0AD108213E4801F0E1FC034643
:10020C0019463B4A7B6842F823100CE07B68022BB2
:10021C0009D11021374801F0D3FC03461946344A62
:10022C007B6842F82310314A7B6852F823202E4910
:10023C007B6851F823309A4249D12B4A7B6852F89B
:10024C0023202B497B6851F823309A423FD1284A0E
:10025C007B6852F82330002B2FD1274A7B6852F849
:10026C002330002B0FD0254A7B68012142F8231044
:10027C00214A7B68002142F82310214A7B68C8215F
:10028C0042F8231023E01E4A7B6852F823305A1E92
:10029C001B497B6841F82320194A7B6852F82330AC
:1002AC00002B14D1174A7B68012142F82310144A01
:1002BC007B68C82142F8231009E00F4A7B680121B2
:1002CC0042F823100E4A7B68C82142F823107B6841
:1002DC0001337B607B68022B7FF76CAF00BF00BFE4
:1002EC000837BD4680BD00BF0C0000200000002078
:1002FC001800002000080140240000207400002099
:10030C00300000208000002080B582B000AF786003
:10031C007B68092B00F2808101A252F823F000BF08
:10032C00550300089D030008E50300082D04000890
:10033C0075040008BD040008050500084D050008FB
:10034C0095050008DD05000800220121B54801F0E3
:10035C004EFC00220221B34801F049FC002204218A
:10036C00B04801F044FC00220821AE4801F03FFCEB
:10037C0000221021AB4801F03AFC00222021A948B0
:10038C0001F035FC01224021A64801F030FC44E18B
:10039C0001220121A34801F02AFC00220221A148DC
:1003AC0001F025FC002204219E4801F020FC0122D2
:1003BC0008219C4801F01BFC01221021994801F0F6
:1003CC0016FC01222021974801F011FC012240214A
:1003DC00944801F00CFC20E100220121914801F02D
:1003EC0006FC002202218F4801F001FC01220421AD
:1003FC008C4801F0FCFB002208218A4801F0F7FB35
:10040C0000221021874801F0F2FB012220218548AF
:10041C0001F0EDFB00224021824801F0E8FBFCE0FA
:10042C00002201217F4801F0E2FB002202217D48DD
:10043C0001F0DDFB002204217A4801F0D8FB0022F8
:10044C000821784801F0D3FB01221021754801F0F6
:10045C00CEFB01222021734801F0C9FB0022402170
:10046C00704801F0C4FBD8E0012201216D4801F075
:10047C00BEFB002202216B4801F0B9FB00220421D3
:10048C00684801F0B4FB01220821664801F0AFFB7B
:10049C0001221021634801F0AAFB002220216148AF
:1004AC0001F0A5FB002240215E4801F0A0FBB4E066
:1004BC00002201215B4801F09AFB012202215948DC
:1004CC0001F095FB00220421564801F090FB00221C
:1004DC000821544801F08BFB01221021514801F0F6
:1004EC0086FB002220214F4801F081FB0022402195
:1004FC004C4801F07CFB90E000220121494801F0BE
:10050C0076FB01220221474801F071FB00220421F5
:10051C00444801F06CFB00220821424801F067FBC3
:10052C00002210213F4801F062FB002220213D48AF
:10053C0001F05DFB002240213A4801F058FB6CE0D1
:10054C0000220121374801F052FB002202213548DC
:10055C0001F04DFB00220421324801F048FB01223E
:10056C000821304801F043FB012210212D4801F0F5
:10057C003EFB012220212B4801F039FB01224021B6
:10058C00284801F034FB48E000220121254801F005
:10059C002EFB00220221234801F029FB002204211A
:1005AC00204801F024FB002208211E4801F01FFB0B
:1005BC00002210211B4801F01AFB002220211948AF
:1005CC0001F015FB00224021164801F010FB24E03D
:1005DC0000220121134801F00AFB002202211148DC
:1005EC0001F005FB002204210E4801F000FB002263
:1005FC0008210C4801F0FBFA01221021094801F0F6
:10060C00F6FA00222021074801F0F1FA00224021DD
:10061C00044801F0ECFA00E000BF00BF0837BD460B
:10062C0080BD00BF000C014080B400AF264B1B689E
:10063C00632B08DC244B1B68244A82FB03129210A8
:10064C00DB17D31A00E00923214A13601E4B1B68E9
:10065C00632B0DDC1C4B19681C4B83FB01239A107C
:10066C00CB17D21A13469B0013445B00CA1A00E046
:10067C000922174B5A60174B1B68632B08DC154B70
:10068C001B68124A82FB03129210DB17D31A00E08C
:10069C0009230F4A93600F4B1B68632B0DDC0D4B2A
:1006AC0019680A4B83FB01239A10CB17D21A1346F5
:1006BC009B0013445B00CA1A00E00922044BDA6069
:1006CC0000BFBD4680BC7047A80000206766666608
:1006DC008C000020AC00002080B582B000AF7860A8
:1006EC00012280212B4801F082FA01224FF4807103
:1006FC00284801F07CFA01224FF40071254801F0E2
:10070C0076FA01224FF48061224801F070FA7B687E
:10071C00032B3AD801A252F823F000BF3907000886
:10072C004F070008670700087F0700080022802198
:10073C00184801F05CFA184B1B681846FFF7E4FDEB
:10074C0024E000224FF48071124801F050FA124B51
:10075C005B681846FFF7D8FD18E000224FF40071D3
:10076C000C4801F044FA0C4B9B681846FFF7CCFD83
:10077C000CE000224FF48061064801F038FA064B79
:10078C00DB681846FFF7C0FD00E000BF00BF08376C
:10079C00BD4680BD000C01408C00002080B483B0AD
:1007AC0000AF78607B68023B032B2FD801A252F874
:1007BC0023F000BFD1070008E3070008F507000885
:1007CC0007080008144B1B68144A1360144B1B6871
:1007DC00144A13601BE0144B1B68104A1360134B34
:1007EC001B68104A136012E00D4B1B680B4A136018
:1007FC00094B1B680B4A136009E00C4B1B68074A3A
:10080C0013600B4B1B68074A136000E000BF00BF6E
:10081C000C37BD4680BC704740000020A80000206B
:10082C0044000020AC000020B00000204800002054
:10083C00B400002080B500AF012280210B4801F0EC
:10084C00D6F901224FF48071084801F0D0F9012249
:10085C004FF40071054801F0CAF901224FF4806190
:10086C00024801F0C4F900BF80BD00BF000C01407C
:10087C0080B500AFA34B1B68013B042B00F26782D1
:10088C0001A252F823F000BFA9080008DB080008F9
:10089C00FF090008350B00084D0C0008994B02228B
:1008AC001A60994B00221A60984B1B684FF47A72AD
:1008BC0002FB03F31946012000F068FD944B012262
:1008CC009A60934B0122DA60FFF7AEFE48E28D4B43
:1008DC001B681846FFF762FF002220218D4801F0AB
:1008EC0086F9012240218B4801F081F901228021F7
:1008FC00884801F07CF901224FF48071854801F0A1
:10090C0076F901224FF40071824801F070F900224F
:10091C004FF480617F4801F06AF9012000F05CFD22
:10092C000346002B10D07C4B1B687C4A1360754B24
:10093C0003221A607A4B1B684FF47A7202FB03F3A2
:10094C001946012000F022FD022000F045FD03466F
:10095C00002B14D06C4B1B681846FFF7BDFEFA2118
:10096C00022000F013FD684B1B680133664A1360CC
:10097C00654B1B68032B02DD634B00221A600320BE
:10098C0000F02AFD0346002B15D0634B1B68013B7E
:10099C00614A1360634B1B68013B624A1360FFF7AB
:1009AC0043FE584B1B681846FFF7F8FE4FF47A715C
:1009BC00032000F0EBFC0020FFF7C2FB0346012BE9
:1009CC0040F0C7814F4B0B221A604FF4FA71012093
:1009DC0000F0DCFC4C4B00221A604D4B01229A605B
:1009EC00FFF728FF00F070FB00F080FB00F090FB9D
:1009FC00AFE1444B1B681846FFF7D0FE00222021C4
:100A0C00444801F0F4F801224021424801F0EFF88B
:100A1C00012280213F4801F0EAF801224FF4807155
:100A2C003C4801F0E4F800224FF40071394801F021
:100A3C00DEF801224FF48061364801F0D8F801202D
:100A4C0000F0CAFC0346012B0CD12E4B04221A6079
:100A5C002E4B1B684FF47A7202FB03F319460120EC
:100A6C0000F094FC022000F0B7FC0346002B14D0DD
:100A7C00254B1B681846FFF72FFEFA21022000F0C9
:100A8C0085FC214B1B6801331F4A13601E4B1B68EE
:100A9C00032B02DD1C4B00221A60032000F09CFC8F
:100AAC000346002B15D01C4B1B68013B1A4A1360E4
:100ABC001C4B1B68013B1B4A1360FFF7B5FD114B28
:100ACC001B681846FFF76AFE4FF47A71032000F09A
:100ADC005DFC0020FFF734FB0346012B40F03B810B
:100AEC00084B0B221A604FF4FA71012000F04EFCF7
:100AFC00FFF7A0FE00F0E8FA00F0F8FA00F008FBAF
:100B0C0029E100BFA40000209C000020440000202C
:100B1C000C01002000080140A8000020B0000020BB
:100B2C0048000020AC0000208E4B1B681846FFF7D5
:100B3C0035FE012220218C4801F059F80122402178
:100B4C00894801F054F800228021874801F04FF8C1
:100B5C0000224FF48071844801F049F801224FF4CF
:100B6C000071814801F043F801224FF480617E4806
:100B7C0001F03DF8012000F02FFC0346012B10D1B1
:100B8C007A4B1B687A4A1360764B05221A60794BB4
:100B9C001B684FF47A7202FB03F31946012000F034
:100BAC00F5FB022000F018FC0346002B14D0724B0E
:100BBC001B681846FFF790FDFA21022000F0E6FBB7
:100BCC006D4B1B6801336C4A13606B4B1B68032B1A
:100BDC0002DD694B00221A60032000F0FDFB034686
:100BEC00002B15D0654B1B68013B644A13605F4BAF
:100BFC001B68013B5D4A1360FFF716FD594B1B68E0
:100C0C001846FFF7CBFD4FF47A71032000F0BEFBC2
:100C1C000020FFF795FA0346012B40F09E80514BC4
:100C2C000B221A604FF4FA71012000F0AFFBFFF7B2
:100C3C0001FE00F049FA00F059FA00F069FA8CE074
:100C4C00484B1B681846FFF7A9FD01222021464896
:100C5C0000F0CDFF00224021434800F0C8FF0122E4
:100C6C008021414800F0C3FF00224FF480713E48C0
:100C7C0000F0BDFF01224FF400713B4800F0B7FFBC
:100C8C0001224FF48061384800F0B1FF012000F0E0
:100C9C00A3FB0346012B0CD1324B02221A60384BBA
:100CAC001B684FF47A7202FB03F31946012000F023
:100CBC006DFB022000F090FB0346002B14D02E4B52
:100CCC001B681846FFF708FDFA21022000F05EFBB6
:100CDC00294B1B680133284A1360274B1B68032BD5
:100CEC0002DD254B00221A60032000F075FB034641
:100CFC00002B15D0214B1B68013B204A13601B4B6A
:100D0C001B68013B194A1360FFF78EFC154B1B68DF
:100D1C001846FFF743FD4FF47A71032000F036FBC1
:100D2C000020FFF70DFA0346012B18D10D4B0B22B7
:100D3C001A604FF4FA71012000F028FBFFF77AFDDE
:100D4C0000F0C2F900F0D2F900F0E2F907E000BFC0
:100D5C0006E000BF04E000BF02E000BF00E000BFFF
:100D6C0000BF80BDA400002000080140AC000020A2
:100D7C00B4000020480000209C000020A8000020A7
:100D8C004400002080B500AF804B1B680D2B00F099
:100D9C000D810D2B00F37E810B2B02D00C2B7AD006
:100DAC0078E17B4B1B687B4A13607B4B02221A60F9
:100DBC00012000F011FB0346012B0DD120217748B7
:100DCC0000F02DFF4FF48071744800F028FF4FF4B1
:100DDC00FA71012000F0DAFA022000F0FDFA034665
:100DEC00002B16D0FA21022000F0D0FAFFF71CFCE1
:100DFC006B4B1B681846FFF76FFC694B1B68013384
:100E0C00674A1360664B1B68032B02DD644B0022A0
:100E1C001A600120FFF794F90346002B04D05C4BB9
:100E2C001B6801335A4A13600120FFF7A3F90346EC
:100E3C00002B04D0564B1B680533554A1360022017
:100E4C00FFF77EF90346002B10D000F03DF94F4B15
:100E5C000C221A604FF4FA71012000F097FA4C4BF7
:100E6C001B68504A13604A4B01221A600020FFF79E
:100E7C0067F90346002B00F00F8100F025F9434B76
:100E8C000C221A604FF4FA71012000F07FFA404BEB
:100E9C0001221A6000E13E4B1B683E4A13603E4B38
:100EAC0003221A60012000F097FA0346012B0DD1A2
:100EBC0040213A4800F0B3FE4FF40071374800F07F
:100ECC00AEFE4FF4FA71012000F060FA022000F03F
:100EDC0083FA0346002B16D0FA21022000F056FAB2
:100EEC00FFF7A2FB2E4B1B681846FFF7F5FB2C4BAC
:100EFC001B6801332A4A1360294B1B68032B02DD44
:100F0C00274B00221A600120FFF71AF90346002B29
:100F1C0004D01F4B1B6801331D4A13600120FFF7DF
:100F2C0029F90346002B04D0194B1B680533184ACA
:100F3C0013600220FFF704F90346002B13D000F0D6
:100F4C00D5F8124B0D221A604FF4FA71012000F003
:100F5C001DFA0F4B1B68144A13600D4B01221A60CB
:100F6C000C4B01221A600020FFF7EAF80346012B14
:100F7C0040F0948000F0BAF8044B0D221A604FF444
:100F8C00FA71012000F002FA88E000BFA4000020F2
:100F9C003C000020A8000020AC000020000801400C
:100FAC00A000002040000020480000203E4B1B68A1
:100FBC003E4A13603E4B04221A60012000F00CFAEA
:100FCC000346012B0DD180213A4800F028FE4FF446
:100FDC008061384800F023FE4FF4FA71012000F0D4
:100FEC00D5F9022000F0F8F90346002B16D0FA21AF
:100FFC00022000F0CBF9FFF717FB2F4B1B681846AC
:10100C00FFF76AFB2C4B1B6801332B4A13602A4BEE
:10101C001B68032B02DD284B00221A600120FFF70E
:10102C008FF80346002B04D01F4B1B6801331E4A5C
:10103C0013600120FFF79EF80346002B04D01A4BD7
:10104C001B680533184A13600220FFF779F8034632
:10105C00002B13D000F05CF8184B01221A60124BD5
:10106C001B68174A1360104B01221A60154B1B6842
:10107C000E4A1360124B1B680D4A13600020FFF7D9
:10108C005FF80346012B0BD100F042F80B4B012209
:10109C001A6005E000BF04E000BF02E000BF00E002
:1010AC0000BF00BF80BD00BF3C000020A800002096
:1010BC00AC00002000080140A0000020A40000208B
:1010CC00440000204000002080B500AF0122202108
:1010DC00054800F08CFD01224FF48071024800F0AD
:1010EC0086FD00BF80BD00BF0008014080B500AF89
:1010FC0001224021054800F07AFD01224FF40071D5
:10110C00024800F074FD00BF80BD00BF0008014024
:10111C0080B500AF01228021054800F068FD012256
:10112C004FF48061024800F062FD00BF80BD00BF3B
:10113C000008014080B500AF00F056FA00F02AF824
:10114C0000F0B0F800F062F80F4801F0AFF901229E
:10115C0020210E4800F04BFD012240210B4800F0ED
:10116C0046FD01228021094800F041FD084B012277
:10117C001A604FF4FA61012000F008F9FFF778FBD0
:10118C00FFF700FE00BFF9E7B8000020000801409F
:10119C00A400002080B590B000AF07F118032822FE
:1011AC000021184601F00EFD3B1D00221A605A600A
:1011BC009A60DA601A610223BB610123BB621023BF
:1011CC00FB6200237B6307F11803184600F040FD17
:1011DC000346002B01D000F0D3F80F237B600023D3
:1011EC00BB600023FB6000233B6100237B613B1D44
:1011FC000021184600F0AEFF0346002B01D000F092
:10120C00BFF800BF4037BD4680BD000080B586B03A
:10121C0000AF07F1080300221A605A609A60DA6086
:10122C003B4600221A605A601D4B4FF080421A60F8
:10123C001B4B41F63F725A60194B00229A60184BB7
:10124C000922DA60164B00221A61154B00229A61B2
:10125C00134801F0DBF80346002B01D000F090F8A6
:10126C004FF48053BB6007F1080319460C4801F09A
:10127C0059FA0346002B01D000F082F800233B60A2
:10128C0000237B603B461946054801F031FC0346C0
:10129C00002B01D000F074F800BF1837BD4680BD9C
:1012AC00B800002080B586B000AF07F1080300221B
:1012BC001A605A609A60DA60284B9B69274A43F09F
:1012CC0004039361254B9B6903F004037B607B68EB
:1012DC00224B9B69214A43F0080393611F4B9B6986
:1012EC0003F008033B603B6800224FF4FC611C4890
:1012FC0000F07DFC002240F2FF711A4800F077FCF0
:10130C001C23BB600023FB6001233B6107F1080336
:10131C001946134800F0D8FA4FF4FC63BB60012364
:10132C00FB6000233B6102237B6107F10803194634
:10133C000B4800F0C9FA40F2FF73BB600123FB605D
:10134C0000233B6102237B6107F108031946054822
:10135C0000F0BAFA00BF1837BD4680BD001002403D
:10136C0000080140000C014080B582B000AF7860ED
:10137C0000F052F8FEF718FF00BF0837BD4680BDDD
:10138C0080B400AF72B600BF00BFFDE780B483B07D
:10139C0000AF786039607B68002B12DB7B68022B16
:1013AC000FDC3B68094A82FB03129210DB17D21A3E
:1013BC0007497B6841F82320064A7B68002142F8E4
:1013CC00231000BF0C37BD4680BC7047676666664D
:1013DC00000100200C01002080B483B000AF7860C5
:1013EC007B68002B0FDB7B68022B0CDC094A7B68CB
:1013FC0052F82330012B06D1064A7B68002142F8B3
:10140C002310012300E0002318460C37BD4680BC96
:10141C00704700BF0C01002080B483B000AF0023E4
:10142C007B601CE0124A7B6852F82330002B13DDE2
:10143C000F4A7B6852F823305A1E0D497B6841F8DD
:10144C0023200B4A7B6852F82330002B04DC094A1A
:10145C007B68012142F823107B6801337B607B6839
:10146C00022BDFDD00BF00BF0C37BD4680BC7047D0
:10147C00000100200C01002080B485B000AF154B9A
:10148C009B69144A43F001039361124B9B6903F06F
:10149C000103BB60BB680F4BDB690E4A43F0805302
:1014AC00D3610C4BDB6903F080537B607B680A4B88
:1014BC005B68FB60FB6823F0E063FB60FB6843F058
:1014CC008063FB60044AFB68536000BF1437BD4661
:1014DC0080BC7047001002400000014080B584B011
:1014EC0000AF78607B681B68B3F1804F13D10C4B55
:1014FC00DB690B4A43F00103D361094BDB6903F051
:10150C000103FB60FB68002200211C2000F0A5F900
:10151C001C2000F0BEF900BF1037BD4680BD00BFD7
:10152C000010024080B400AF00BFFDE780B400AFF4
:10153C0000BFFDE780B400AF00BFFDE780B400AF93
:10154C0000BFFDE780B400AF00BFFDE780B400AF83
:10155C0000BFBD4680BC704780B400AF00BFBD4625
:10156C0080BC704780B400AF00BFBD4680BC7047E4
:10157C0080B500AF00F07EF800BF80BD80B500AF35
:10158C00024800F0DFFF00BF80BD00BFB8000020A4
:10159C0080B400AF00BFBD4680BC7047FFF7F8FFBA
:1015AC000B480C490C4A002302E0D458C4500433B5
:1015BC00C4188C42F9D3094A094C002301E013608A
:1015CC000432A242FBD301F005FBFFF7B3FD7047D9
:1015DC0000000020580000206C2C0008580000204F
:1015EC001C010020FEE7000080B500AF084B1B6813
:1015FC00074A43F010031360032000F023F90F2077
:10160C0000F008F8FFF738FF0023184680BD00BF34
:10161C000020024080B582B000AF7860124B1A688F
:10162C00124B1B7819464FF47A73B3FBF1F3B2FBF0
:10163C00F3F3184600F03BF90346002B01D00123CD
:10164C000EE07B680F2B0AD8002279684FF0FF3030
:10165C0000F003F9064A7B681360002300E00123C5
:10166C0018460837BD4680BD4C00002054000020B1
:10167C005000002080B400AF054B1B781A46054B78
:10168C001B681344034A136000BFBD4680BC7047FF
:10169C00540000201801002080B400AF024B1B68DE
:1016AC001846BD4680BC70471801002080B485B038
:1016BC0000AF78607B6803F00703FB600C4BDB68C2
:1016CC00BB60BA684FF6FF031340BB60FB681A029D
:1016DC00BB68134343F0BF6343F40033BB60044A5D
:1016EC00BB68D36000BF1437BD4680BC704700BFD9
:1016FC0000ED00E080B400AF044BDB681B0A03F084
:10170C0007031846BD4680BC704700BF00ED00E0E3
:10171C0080B483B000AF0346FB7197F90730002B00
:10172C000BDBFB7903F01F02064997F907305B09C5
:10173C00012000FA02F241F8232000BF0C37BD460D
:10174C0080BC704700E100E080B483B000AF03467A
:10175C003960FB7197F90730002B0ADB3B68DAB272
:10176C000C4997F907301201D2B20B4483F80023CD
:10177C000AE03B68DAB20849FB7903F00F03043B3B
:10178C001201D2B20B441A7600BF0C37BD4680BC96
:10179C00704700BF00E100E000ED00E080B489B0CC
:1017AC0000AFF860B9607A60FB6803F00703FB6177
:1017BC00FB69C3F10703042B28BF0423BB61FB693E
:1017CC000433062B02D9FB69033B00E000237B6149
:1017DC004FF0FF32BB6902FA03F3DA43BB681A40DD
:1017EC007B699A404FF0FF317B6901FA03F3D943CF
:1017FC007B680B40134318462437BD4680BC7047AA
:10180C0080B582B000AF78607B68013BB3F1807F1C
:10181C0001D301230FE00A4A7B68013B53600F217F
:10182C004FF0FF30FFF790FF054B00229A60044BFE
:10183C0007221A60002318460837BD4680BD00BF3A
:10184C0010E000E080B582B000AF78607868FFF7F8
:10185C002DFF00BF0837BD4680BD80B586B000AFF8
:10186C000346B9607A60FB7300237B61FFF742FF8C
:10187C0078617A68B9687869FFF790FF024697F942
:10188C000F3011461846FFF75FFF00BF1837BD46F3
:10189C0080BD80B582B000AF0346FB7197F907306D
:1018AC001846FFF735FF00BF0837BD4680BD80B531
:1018BC0082B000AF78607868FFF7A2FF0346184645
:1018CC000837BD4680BD000080B48BB000AF786097
:1018DC00396000237B6200233B6261E101227B6A59
:1018EC0002FA03F3FB613B681B68FA691340BB61A6
:1018FC00BA69FB699A4240F050813B685B68974A31
:10190C0093425ED0954A934275D8954A934258D0EB
:10191C00934A93426FD8934A934252D0914A93423E
:10192C0069D8914A93424CD08F4A934263D88F4ADC
:10193C00934246D08D4A93425DD8122B2AD8122B53
:10194C0059D801A252F823F0CF190008A9190008A0
:10195C00BB190008FD190008031A0008031A000837
:10196C00031A0008031A0008031A0008031A0008D7
:10197C00031A0008031A0008031A0008031A0008C7
:10198C00031A0008031A0008031A0008B11900080A
:10199C00C5190008764A934213D02CE03B68DB68EB
:1019AC003B6229E03B68DB6804333B6224E03B6824
:1019BC00DB6808333B621FE03B68DB680C333B623F
:1019CC001AE03B689B68002B02D104233B6213E0B6
:1019DC003B689B68012B05D108233B627B68FA6945
:1019EC001A6109E008233B627B68FA695A6103E0DB
:1019FC0000233B6200E000BFBB69FF2B01D87B6872
:101A0C0001E07B6804337B61BB69FF2B02D87B6AE6
:101A1C009B0002E07B6A083B9B003B617B691A6878
:101A2C000F213B6901FA03F3DB431A40396A3B6926
:101A3C0001FA03F31A437B691A603B685B6803F095
:101A4C008053002B00F0A9804A4B9B69494A43F014
:101A5C0001039361474B9B6903F00103BB60BB68B7
:101A6C00454A7B6A9B08023352F82330FB607B6A41
:101A7C0003F003039B000F2202FA03F3DB43FA6823
:101A8C001340FB607B683D4A93420DD07B683C4A17
:101A9C00934207D07B683B4A934201D1022304E076
:101AAC00032302E0012300E000237A6A02F0030220
:101ABC0092009340FA681343FB602F497B6A9B08A2
:101ACC000233FA6841F823203B685B6803F4801307
:101ADC00002B06D02C4B9A682B49BB6913438B60A7
:101AEC0006E0294B9A68BB69DB43274913408B609E
:101AFC003B685B6803F40013002B06D0224BDA68BA
:101B0C002149BB691343CB6006E01F4BDA68BB6904
:101B1C00DB431D491340CB603B685B6803F4003327
:101B2C00002B06D0184B5A681749BB6913434B60FE
:101B3C0006E0154B5A68BB69DB43134913404B60F5
:101B4C003B685B6803F48033002B1FD00E4B1A6884
:101B5C000D49BB6913430B601FE000BF000032103E
:101B6C0000003110000022100000211000001210A3
:101B7C00000011100010024000000140000801405C
:101B8C00000C014000100140000401400B4B1A688E
:101B9C00BB69DB43094913400B607B6A01337B62F1
:101BAC003B681A687B6A22FA03F3002B7FF496AE2B
:101BBC0000BF00BF2C37BD4680BC704700040140FD
:101BCC0080B485B000AF78600B467B807B689A68E8
:101BDC007B881340002B02D00123FB7301E0002310
:101BEC00FB73FB7B18461437BD4680BC704780B432
:101BFC0083B000AF78600B467B8013467B707B789C
:101C0C00002B03D07A887B681A6103E07B881A0466
:101C1C007B681A6100BF0C37BD4680BC704780B42E
:101C2C0085B000AF78600B467B807B68DB68FB601F
:101C3C007A88FB6813401A04FB68D9437B880B40F5
:101C4C001A437B681A6100BF1437BD4680BC7047CD
:101C5C0080B586B000AF78607B68002B01D1012382
:101C6C0072E27B681B6803F00103002B00F0878095
:101C7C00924B5B6803F00C03042B0CD08F4B5B680E
:101C8C0003F00C03082B12D18C4B5B6803F48033EC
:101C9C00B3F5803F0BD1894B1B6803F40033002B49
:101CAC006CD07B685B68002B68D101234CE27B68AD
:101CBC005B68B3F5803F06D1804B1B687F4A43F4C9
:101CCC00803313602EE07B685B68002B0CD17B4B60
:101CDC001B687A4A23F480331360784B1B68774A6D
:101CEC0023F4802313601DE07B685B68B3F5A02FA1
:101CFC000CD1724B1B68714A43F4802313606F4BF9
:101D0C001B686E4A43F4803313600BE06B4B1B680B
:101D1C006A4A23F480331360684B1B68674A23F4C8
:101D2C00802313607B685B68002B13D0FFF7B4FC37
:101D3C00386108E0FFF7B0FC02463B69D31A642B0C
:101D4C0001D9032300E25D4B1B6803F40033002B25
:101D5C00F0D014E0FFF7A0FC386108E0FFF79CFC22
:101D6C0002463B69D31A642B01D90323ECE1534B94
:101D7C001B6803F40033002BF0D100E000BF7B683C
:101D8C001B6803F00203002B63D04C4B5B6803F021
:101D9C000C03002B0BD0494B5B6803F00C03082B96
:101DAC001CD1464B5B6803F48033002B16D1434B9C
:101DBC001B6803F00203002B05D07B681B69012B09
:101DCC0001D00123C0E13D4B1B6823F0F8027B6876
:101DDC005B69DB00394913430B603AE07B681B6994
:101DEC00002B20D0364B01221A60FFF755FC3861CE
:101DFC0008E0FFF751FC02463B69D31A022B01D9CC
:101E0C000323A1E12D4B1B6803F00203002BF0D040
:101E1C002A4B1B6823F0F8027B685B69DB002749BF
:101E2C0013430B6015E0264B00221A60FFF734FCBD
:101E3C00386108E0FFF730FC02463B69D31A022BED
:101E4C0001D9032380E11D4B1B6803F00203002B17
:101E5C00F0D17B681B6803F00803002B3AD07B6839
:101E6C009B69002B19D0174B01221A60FFF714FC49
:101E7C00386108E0FFF710FC02463B69D31A022BCD
:101E8C0001D9032360E10D4B5B6A03F00203002BC5
:101E9C00F0D0012000F09CFA1CE00A4B00221A60E2
:101EAC00FFF7FAFB38610FE0FFF7F6FB02463B69E0
:101EBC00D31A022B08D9032346E100BF00100240BD
:101ECC000000424280044242924B5B6A03F00203E0
:101EDC00002BE9D17B681B6803F00403002B00F096
:101EEC00A6800023FB758B4BDB6903F08053002B22
:101EFC000DD1884BDB69874A43F08053D361854B06
:101F0C00DB6903F08053BB60BB680123FB75824B1C
:101F1C001B6803F48073002B18D17F4B1B687E4A1F
:101F2C0043F480731360FFF7B7FB386108E0FFF7E9
:101F3C00B3FB02463B69D31A642B01D9032303E19B
:101F4C00754B1B6803F48073002BF0D07B68DB6847
:101F5C00012B06D16F4B1B6A6E4A43F001031362CF
:101F6C002DE07B68DB68002B0CD16A4B1B6A694A3D
:101F7C0023F001031362674B1B6A664A23F00403C8
:101F8C0013621CE07B68DB68052B0CD1614B1B6A70
:101F9C00604A43F0040313625E4B1B6A5D4A43F0D4
:101FAC00010313620BE05B4B1B6A5A4A23F00103DB
:101FBC001362584B1B6A574A23F0040313627B6865
:101FCC00DB68002B15D0FFF767FB38610AE0FFF7E1
:101FDC0063FB02463B69D31A41F28832934201D922
:101FEC000323B1E04B4B1B6A03F00203002BEED032
:101FFC0014E0FFF751FB38610AE0FFF74DFB024696
:10200C003B69D31A41F28832934201D903239BE0F6
:10201C00404B1B6A03F00203002BEED1FB7D012B1E
:10202C0005D13C4BDB693B4A23F08053D3617B6881
:10203C00DB69002B00F08780364B5B6803F00C03E8
:10204C00082B61D07B68DB69022B46D1334B002215
:10205C001A60FFF721FB386108E0FFF71DFB024611
:10206C003B69D31A022B01D903236DE0294B1B6862
:10207C0003F00073002BF0D17B681B6AB3F5803F33
:10208C0008D1244B5B6823F400327B689B682149A0
:10209C0013434B601F4B5B6823F474127B68196A03
:1020AC007B685B6A0B431B4913434B601B4B012240
:1020BC001A60FFF7F1FA386108E0FFF7EDFA024613
:1020CC003B69D31A022B01D903233DE0114B1B684A
:1020DC0003F00073002BF0D035E0104B00221A6097
:1020EC00FFF7DAFA386108E0FFF7D6FA02463B69E7
:1020FC00D31A022B01D9032326E0064B1B6803F0ED
:10210C000073002BF0D11EE07B68DB69012B07D13B
:10211C00012319E0001002400070004060004242B0
:10212C000B4B5B68FB60FB6803F480327B681B6ABB
:10213C009A4206D1FB6803F470127B685B6A9A4280
:10214C0001D0012300E0002318461837BD4680BD9E
:10215C000010024080B584B000AF786039607B68B5
:10216C00002B01D10123D0E06A4B1B6803F007035D
:10217C003A689A4210D9674B1B6823F007026549ED
:10218C003B6813430B60634B1B6803F007033A680F
:10219C009A4201D00123B8E07B681B6803F002036C
:1021AC00002B20D07B681B6803F00403002B05D0A8
:1021BC00594B5B68584A43F4E06353607B681B6877
:1021CC0003F00803002B05D0534B5B68524A43F4D1
:1021DC0060535360504B5B6823F0F0027B689B6844
:1021EC004D4913434B607B681B6803F00103002BC4
:1021FC0040D07B685B68012B07D1474B1B6803F40D
:10220C000033002B15D101237FE07B685B68022B28
:10221C0007D1414B1B6803F00073002B09D101233C
:10222C0073E03D4B1B6803F00203002B01D101232B
:10223C006BE0394B5B6823F003027B685B683649C3
:10224C0013434B60FFF728FAF8600AE0FFF724FA13
:10225C000246FB68D31A41F28832934201D9032318
:10226C0053E02D4B5B6803F00C027B685B689B00B2
:10227C009A42EBD1274B1B6803F007033A689A424A
:10228C0010D2244B1B6823F0070222493B681343EE
:10229C000B60204B1B6803F007033A689A4201D08D
:1022AC00012332E07B681B6803F00403002B08D089
:1022BC00194B5B6823F4E0627B68DB6816491343B7
:1022CC004B607B681B6803F00803002B09D0124B92
:1022DC005B6823F460527B681B69DB000E49134377
:1022EC004B6000F021F802460B4B5B681B0903F0B6
:1022FC000F030A49CB5C22FA03F3094A1360094B1A
:10230C001B681846FFF786F9002318461037BD46A0
:10231C0080BD00BF0020024000100240402C00088D
:10232C004C0000205000002080B487B000AF002388
:10233C00FB600023BB6000237B6100237B600023D8
:10234C003B611E4B5B68FB60FB6803F00C03042BCA
:10235C0002D0082B03D027E0194B3B6127E0FB6828
:10236C009B0C03F00F03174AD35C7B60FB6803F4F0
:10237C008033002B10D0114B5B685B0C03F0010316
:10238C00114AD35CBB607B680D4A03FB02F2BB684D
:10239C00B2FBF3F37B6104E07B680C4A02FB03F3B2
:1023AC007B617B693B6102E0054B3B6100BF3B6994
:1023BC0018461C37BD4680BC704700BF0010024059
:1023CC0000127A00502C0008602C000800093D0017
:1023DC0080B485B000AF78600A4B1B680A4AA2FB38
:1023EC0003235B0A7A6802FB03F3FB6000BFFB6804
:1023FC005A1EFA60002BF9D100BF00BF1437BD463E
:10240C0080BC70474C000020D34D621080B582B068
:10241C0000AF78607B68002B01D1012341E07B6821
:10242C0093F83D30DBB2002B06D17B68002283F899
:10243C003C207868FFF752F87B68022283F83D2035
:10244C007B681A687B6804331946104600F056FA0C
:10245C007B68012283F846207B68012283F83E20AA
:10246C007B68012283F83F207B68012283F840209F
:10247C007B68012283F841207B68012283F842208B
:10248C007B68012283F843207B68012283F8442077
:10249C007B68012283F845207B68012283F83D206C
:1024AC00002318460837BD4680BD000080B485B0B7
:1024BC0000AF78607B6893F83D30DBB2012B01D024
:1024CC00012335E07B68022283F83D207B681B6882
:1024DC00DA687B681B6842F00102DA607B681B6873
:1024EC00164A934209D07B681B68B3F1804F04D025
:1024FC007B681B68124A934211D17B681B689B68EE
:10250C0003F00703FB60FB68062B10D07B681B688D
:10251C001A687B681B6842F001021A6007E07B684E
:10252C001B681A687B681B6842F001021A60002362
:10253C0018461437BD4680BC704700BF002C0140C4
:10254C000004004080B584B000AF78607B681B68E5
:10255C00DB68FB607B681B681B69BB60BB6803F0B6
:10256C000203002B20D0FB6803F00203002B1BD0CE
:10257C007B681B686FF002021A617B6801221A7774
:10258C007B681B689B6903F00303002B03D07868FE
:10259C0000F098F905E0786800F08BF9786800F0A5
:1025AC009AF97B6800221A77BB6803F00403002BAE
:1025BC0020D0FB6803F00403002B1BD07B681B6846
:1025CC006FF004021A617B6802221A777B681B6821
:1025DC009B6903F44073002B03D0786800F072F908
:1025EC0005E0786800F065F9786800F074F97B68AC
:1025FC0000221A77BB6803F00803002B20D0FB687D
:10260C0003F00803002B1BD07B681B686FF00802DB
:10261C001A617B6804221A777B681B68DB6903F0FC
:10262C000303002B03D0786800F04CF905E07868C0
:10263C0000F03FF9786800F04EF97B6800221A77B9
:10264C00BB6803F01003002B20D0FB6803F01003D1
:10265C00002B1BD07B681B686FF010021A617B6823
:10266C0008221A777B681B68DB6903F44073002B24
:10267C0003D0786800F026F905E0786800F019F9C5
:10268C00786800F028F97B6800221A77BB6803F0A1
:10269C000103002B0CD0FB6803F00103002B07D0C7
:1026AC007B681B686FF001021A617868FEF75CFEAC
:1026BC00BB6803F08003002B0CD0FB6803F0800395
:1026CC00002B07D07B681B686FF080021A6178685A
:1026DC0000F06FFABB6803F04003002B0CD0FB68D2
:1026EC0003F04003002B07D07B681B686FF040029F
:1026FC001A61786800F0F8F8BB6803F02003002B2F
:10270C000CD0FB6803F02003002B07D07B681B6800
:10271C006FF020021A61786800F042FA00BF10379F
:10272C00BD4680BD80B584B000AF786039600023B1
:10273C00FB737B6893F83C30012B01D10223B4E08E
:10274C007B68012283F83C207B68022283F83D20C1
:10275C007B681B689B68BB60BB6823F07703BB601E
:10276C00BB6823F47F43BB607B681B68BA689A60C4
:10277C003B681B68B3F5005F3ED0B3F5005F00F219
:10278C008780B3F5805F00F08680B3F5805F7FD8DB
:10279C00702B1AD0702B7BD8602B50D0602B77D835
:1027AC00502B3CD0502B73D8402B58D0402B6FD88B
:1027BC00302B64D0302B6BD8202B60D0202B67D8DB
:1027CC00002B5CD0102B5AD062E07B6818683B68F9
:1027DC0099683B685A683B68DB6800F06AF97B686B
:1027EC001B689B68BB60BB6843F07703BB607B686E
:1027FC001B68BA689A604FE07B6818683B689968F8
:10280C003B685A683B68DB6800F053F97B681B68CF
:10281C009A687B681B6842F480429A603CE07B6853
:10282C0018683B6859683B68DB681A4600F0CAF8C0
:10283C007B681B685021184600F021F92CE07B685E
:10284C0018683B6859683B68DB681A4600F0E8F882
:10285C007B681B686021184600F011F91CE07B684E
:10286C0018683B6859683B68DB681A4600F0AAF8A0
:10287C007B681B684021184600F001F90CE07B686E
:10288C001A683B681B681946104600F0F8F803E01C
:10289C000123FB7300E000BF7B68012283F83D201D
:1028AC007B68002283F83C20FB7B18461037BD4622
:1028BC0080BD80B483B000AF786000BF0C37BD46DC
:1028CC0080BC704780B483B000AF786000BF0C3719
:1028DC00BD4680BC704780B483B000AF786000BF49
:1028EC000C37BD4680BC704780B483B000AF7860B5
:1028FC0000BF0C37BD4680BC7047000080B485B06B
:10290C0000AF786039607B681B68FB607B682B4A82
:10291C00934207D07B68B3F1804F03D07B68284A81
:10292C00934208D1FB6823F07003FB603B685B6843
:10293C00FA681343FB607B68204A934207D07B689C
:10294C00B3F1804F03D07B681D4A934208D1FB68DA
:10295C0023F44073FB603B68DB68FA681343FB604D
:10296C00FB6823F080023B685B691343FB607B6868
:10297C00FA681A603B689A687B68DA623B681A6886
:10298C007B689A627B680D4A934203D13B681A6953
:10299C007B681A637B6801225A617B681B6903F0B0
:1029AC000103002B05D07B681B6923F001027B68B7
:1029BC001A6100BF1437BD4680BC7047002C014023
:1029CC000004004080B487B000AFF860B9607A6052
:1029DC00FB681B6A7B61FB681B6A23F00102FB68C6
:1029EC001A62FB689B693B613B6923F0F0033B6116
:1029FC007B681B013A6913433B617B6923F00A0333
:102A0C007B617A69BB6813437B61FB683A699A61A5
:102A1C00FB687A691A6200BF1C37BD4680BC7047E0
:102A2C0080B487B000AFF860B9607A60FB681B6A4D
:102A3C007B61FB681B6A23F01002FB681A62FB685F
:102A4C009B693B613B6923F470433B617B681B03CF
:102A5C003A6913433B617B6923F0A0037B61BB683C
:102A6C001B017A6913437B61FB683A699A61FB68C5
:102A7C007A691A6200BF1C37BD4680BC704780B4AF
:102A8C0085B000AF786039607B689B68FB60FB6841
:102A9C0023F07003FB603A68FB68134343F00703B1
:102AAC00FB607B68FA689A6000BF1437BD4680BC37
:102ABC00704780B487B000AFF860B9607A603B6053
:102ACC00FB689B687B617B6923F47F437B613B687C
:102ADC001A027B681A43BB6813437A6913437B6100
:102AEC00FB687A699A6000BF1C37BD4680BC704792
:102AFC0080B485B000AF786039607B6893F83C3067
:102B0C00012B01D1022341E07B68012283F83C2098
:102B1C007B68022283F83D207B681B685B68FB6046
:102B2C007B681B689B68BB60FB6823F07003FB60D1
:102B3C003B681B68FA681343FB607B681B68FA6888
:102B4C005A607B681B68144A934209D07B681B68E7
:102B5C00B3F1804F04D07B681B68104A93420CD1B0
:102B6C00BB6823F08003BB603B685B68BA681343A7
:102B7C00BB607B681B68BA689A607B68012283F82B
:102B8C003D207B68002283F83C2000231846143734
:102B9C00BD4680BC704700BF002C014000040040C3
:102BAC0080B483B000AF786000BF0C37BD4680BCEA
:102BBC00704780B483B000AF786000BF0C37BD465F
:102BCC0080BC704703460244934200D1704703F81F
:102BDC00011BF9E770B500260C4D0D4C641BA410BD
:102BEC00A64209D100F01AF800260A4D0A4C641BC3
:102BFC00A410A64205D170BD55F8043B9847013688
:102C0C00EEE755F8043B98470136F2E7642C0008D0
:102C1C00642C0008642C0008682C0008F8B500BF70
:102C2C00F8BC08BC9E467047F8B500BFF8BC08BCA1
:042C3C009E467047F9
:102C4000000000000000000001020304060708095C
:102C500002030405060708090A0B0C0D0E0F1010DD
:042C6000010200006D
:042C64003101000832
:042C68000D01000852
:102C6C000100000000000000000000000100000056
:102C7C000000000000000000010000000000000047
:102C8C000000000001000000000000000000000037
:102C9C00C8000000C8000000C800000001000000CF
:102CAC0005000000030000000200000000127A0082
:082CBC001000000001000000FF
:04000005080015A931
:00000001FF
